:020000040800F2
:10000000FFFF0120A1410008F1410008F141000873
:10001000F1410008F1410008F14100080000000032
:10002000000000000000000000000000F141000896
:10003000F141000800000000F1410008F141000812
:10004000F1410008F1410008F1410008F1410008C8
:10005000F1410008F1410008F1410008F1410008B8
:10006000F1410008F1410008F1410008F1410008A8
:10007000F1410008F1410008F1410008F141000898
:10008000F1410008F1410008F1410008F141000888
:10009000F1410008F1410008F1410008F141000878
:1000A000F1410008F1410008F1410008F141000868
:1000B000F1410008F1410008F1410008F141000858
:1000C000F1410008F1410008F1410008F141000848
:1000D000F1410008F1410008F1410008F141000838
:1000E000F1410008F1410008F1410008F141000828
:1000F000F1410008F1410008F1410008F141000818
:10010000F1410008F1410008F1410008F141000807
:10011000F1410008F1410008F1410008F1410008F7
:10012000F1410008F1410008F1410008F1410008E7
:10013000F1410008F1410008F1410008F1410008D7
:10014000F1410008F1410008F1410008F1410008C7
:10015000F1410008F1410008F1410008F1410008B7
:10016000F1410008F1410008F1410008F1410008A7
:10017000F1410008F1410008F141000800000000D1
:10018000F1410008F1410008F1410008F141000887
:10019000F1410008F1410008F1410008F141000877
:0C01A000F1410008F1410008F1410008A5
:1001AC0010B5054C237833B9044B13B10448AFF3A5
:1001BC0000800123237010BD4804002000000000C3
:1001CC00F4410008084B10B51BB108480849AFF3BF
:1001DC0000800848036803B910BD074B002BFBD007
:1001EC00BDE81040184700BF00000000F4410008B3
:1001FC004C040020480400200000000080B586B0AC
:10020C0000AF0F4A0E4B1B6B43F0010313630C4BF7
:10021C001B6B03F001033B603B6802237B610023F3
:10022C00BB6001237B600023FB6003233B613B1D10
:10023C000448194602F0B4FB1837BD4680BD00BF18
:10024C00003802400000024080B586B000AF0F4A73
:10025C000E4B1B6B43F0400313630C4B1B6B03F0F7
:10026C0040033B603B6802237B610123BB604FF47E
:10027C0000537B600023FB6003233B613B1D044860
:10028C00194602F08DFB1837BD4680BD0038024080
:10029C000018024080B586B000AF0F4A0E4B1B6BA6
:1002AC0043F0400313630C4B1B6B03F040033B60A8
:1002BC003B6802237B610123BB604FF480437B606E
:1002CC000023FB6003233B613B1D0448194602F0ED
:1002DC0067FB1837BD4680BD00380240001802404D
:1002EC0080B586B000AF0F4A0E4B1B6B43F0020378
:1002FC0013630C4B1B6B03F002033B603B68022344
:10030C007B610123BB604FF400537B600023FB60D7
:10031C0003233B613B1D0448194602F041FB18378F
:10032C00BD4680BD003802400004024080B586B056
:10033C0000AF0F4A0E4B1B6B43F0040313630C4BC3
:10034C001B6B03F004033B603B6802237B610123BE
:10035C00BB6020237B600023FB6003233B613B1DC0
:10036C000448194602F01CFB1837BD4680BD00BF7F
:10037C00003802400008024080B400AF0B4B1B68F1
:10038C005A1C0A490A60B3F57A7F07D3074B00223F
:10039C001A60074B1B680133054A1360044B1B683A
:1003AC001846BD465DF8047B704700BF680400200A
:1003BC006C04002080B582B000AF78603960FFF724
:1003CC00DBFF0246074B1A60064B1A683B68D21AD1
:1003DC007B689A4201D2002300E0012318460837BB
:1003EC00BD4680BD6404002080B500AF304B1B7847
:1003FC00012B21D0022B3DD0002B58D12D484FF48E
:10040C000051012202F092FD2B484FF400510122C1
:10041C0002F08CFD294B1B680A201946FFF7CAFF16
:10042C000346002B07D0224B01221A70244B1B6869
:10043C00224A13603BE03AE01E484FF4005101227F
:10044C0002F074FD1C484FF40051012202F06EFDC5
:10045C001A4B1B680A201946FFF7ACFF0346002B0A
:10046C0007D0134B02221A70154B1B68134A1360EA
:10047C001DE01CE00F484FF40051002202F056FD25
:10048C000D484FF40051002202F050FD0B4B1B683D
:10049C000A201946FFF78EFF0346002B06D0044BAB
:1004AC0000221A70064B1B68044A136000BF80BD03
:1004BC007004002000180240000402407404002064
:1004CC006404002080B500AF3348012102F016FD12
:1004DC000346012B03D1314B05221A6002E02F4B4E
:1004EC0014221A602E4B1B78012B1ED0022B37D0F6
:1004FC00002B4FD1294B1B681A462A4B1B68104600
:10050C001946FFF757FF0346002B0DD026484FF432
:10051C008041012202F00AFD214B01221A70234B6B
:10052C001B68204A136035E034E01C4B1B681A46EC
:10053C001C4B1B6810461946FFF73CFF0346002B6B
:10054C000DD019484FF48041012202F0EFFC144BFE
:10055C0002221A70154B1B68124A13601AE019E03C
:10056C000E4B1B681A460F4B1B6810461946FFF7BB
:10057C0021FF0346002B0CD00B484FF48041002286
:10058C0002F0D4FC064B00221A70084B1B68054A7B
:10059C00136000BF80BD00BF0000024000000020BF
:1005AC00780400207C040020001802406404002021
:1005BC0080B500AF3948012102F0A0FC0346012BA5
:1005CC0006D1374B05221A60364B05221A6002E021
:1005DC00334B14221A60344B1B78012B1DD0022B89
:1005EC0041D0002B58D12E4B1B681A462F4B1B6841
:1005FC0010461946FFF7DEFE0346002B0CD02C48A4
:10060C002021012202F092FC274B01221A70294B67
:10061C001B68264A13603FE03EE0214B1B681A46DC
:10062C00224B1B6810461946FFF7C4FE0346002BED
:10063C0010D01F482021012202F078FC194B1B68B6
:10064C00013B184A1360184B02221A70194B1B6895
:10065C00164A1360134B1B68002B03D1124B00225C
:10066C001A7019E018E00E4B1B681A460F4B1B68EA
:10067C0010461946FFF79EFE0346002B0BD00C4884
:10068C002021002202F052FC074B00221A70094B69
:10069C001B68064A136000BF80BD00BF000002400B
:1006AC000400002080040020840400208804002022
:1006BC00000802406404002080B500AF314B1B6879
:1006CC00FF2B22D0B3F5827F3ED0002B59D12E4880
:1006DC004FF40051012202F029FC2C484FF4005138
:1006EC00012202F023FC2A4B1B680A201946FFF753
:1006FC0061FE0346002B07D0264B1B68244A13606F
:10070C00204BFF221A603CE03BE01F484FF40051A5
:10071C00012202F00BFC1D484FF40051012202F0A3
:10072C0005FC1B4B1B680A201946FFF743FE0346CA
:10073C00002B08D0174B1B68154A1360114B4FF454
:10074C0082721A601DE01CE00F484FF40051002229
:10075C0002F0ECFB0D484FF40051002202F0E6FBD6
:10076C000B4B1B680A201946FFF724FE0346002B8F
:10077C0006D0084B1B68064A1360024B00221A6015
:10078C0000BF80BD8C040020001802400004024011
:10079C00900400206404002080B500AF354801218E
:1007AC0002F0ACFB0346012B03D1334B05221A603C
:1007BC0002E0314B14221A60304B1B6840F22112BC
:1007CC00934220D0B3F5947F39D0002B51D12A4BD2
:1007DC001B681A462A4B1B6810461946FFF7EAFDA0
:1007EC000346002B0ED027484FF48041012202F023
:1007FC009DFB254B1B68224A1360204B40F22112B3
:10080C001A6036E035E01C4B1B681A461C4B1B6803
:10081C0010461946FFF7CEFD0346002B0ED01948A3
:10082C004FF48041012202F081FB174B1B68144AE4
:10083C001360124B4FF494721A601AE019E00E4BCD
:10084C001B681A460E4B1B6810461946FFF7B2FD83
:10085C000346002B0CD00B484FF48041012202F0D0
:10086C0065FB094B1B68064A1360044B00221A6097
:10087C0000BF80BD00000240000000209404002056
:10088C0098040020001802406404002080B500AFDA
:10089C003C48012102F032FB0346012B06D13A4BB6
:1008AC0005221A60394B05221A6002E0364B1422DD
:1008BC001A60374B1B6840F24912934220D040F229
:1008CC005512934243D0002B5AD12F4B1B681A461A
:1008DC00304B1B6810461946FFF76CFD0346002B86
:1008EC000DD02D482021012202F020FB2B4B1B6840
:1008FC00284A1360264B40F249121A6040E03FE050
:10090C00224B1B68002B02D1214B00221A601E4B7C
:10091C001B681A461F4B1B6810461946FFF74AFD09
:10092C000346002B12D01C482021012202F0FEFAB3
:10093C00164B1B68013B154A1360184B1B68154A74
:10094C001360134B40F255121A6019E018E00E4B6D
:10095C001B681A460F4B1B6810461946FFF72AFDF9
:10096C000346002B0BD00C482021002202F0DEFAAB
:10097C000A4B1B68074A1360054B00221A6000BF24
:10098C0080BD00BF00000240000000209C0400203D
:10099C00A0040020A40400200008024064040020ED
:1009AC0080B483B000AF78607B681B6840F267123C
:1009BC00934216D0B3F5B47F02D2002B09D028E0B5
:1009CC0040F26912934214D040F26B12934218D049
:1009DC001FE0124B00221A607B6840F267121A600B
:1009EC0017E00E4B01221A607B6840F269121A6004
:1009FC000FE00A4B02221A607B6840F26B121A60FD
:100A0C0007E0064B03221A607B6840F26D121A60F5
:100A1C0000BF0C37BD465DF8047B7047A80400206E
:100A2C0080B588B000AF78600023FB610023FB60C9
:100A3C00AC4BBB6100237B6100233B617B68002BCB
:100A4C0001D101236BE17B6893F84430DBB2002BBE
:100A5C0006D17B68002283F84520786800F054FAB0
:100A6C00A14AA14B5B6C43F4804353649E4B5B6C7B
:100A7C0003F48043BB60BB689C4A9C4B5B6823F4CB
:100A8C00000353609949994B5A687B681B6A13435E
:100A9C004B607B681B687A68126802F5805212689A
:100AAC0042F0010203F580531A6000BF7B681B689B
:100ABC0003F580531B6803F00103002BF6D17B6810
:100ACC001B681B69FB61FB6923F01C03FB6102F0D3
:100ADC00CDFFB861BB69864A934208D9BB69854A88
:100AEC00934204D8FB6943F00803FB6126E0BB6921
:100AFC00804A934208D9BB697F4A934204D8FB6968
:100B0C0043F00C03FB6119E0BB697B4A934204D9A7
:100B1C00BB697A4A934200D810E0BB69774A93428A
:100B2C0008D9BB69764A934204D8FB6943F00403A5
:100B3C00FB6103E0FB6943F01003FB617B681B68FE
:100B4C00FA691A61786800214FF4004200F0D6FC73
:100B5C000346002B0BD001233B617868396900F008
:100B6C0029FF7B68012283F844200123D7E0FF2072
:100B7C0001F0ECFD7B685B68002B00F0948001F0C9
:100B8C00D9FD786107F10C03786801211A4600F051
:100B9C004DFC01F0CFFD02467B69D31AB3F5FA6F19
:100BAC000FD901233B617868396900F003FF7B683A
:100BBC00012283F844207B68002283F8452003231C
:100BCC00ADE0FB6803F00403002BDBD07868002158
:100BDC004FF4805200F092FC0346002B0BD0012303
:100BEC003B617868396900F0E5FE7B68012283F887
:100BFC004420012393E001F09DFD786107F10C0383
:100C0C00786801211A4600F011FC01F093FD0246B0
:100C1C007B69D31AB3F57A7F0FD901233B617868CE
:100C2C00396900F0C7FE7B68012283F844207B6899
:100C3C00002283F84520032371E0FB6803F02003B6
:100C4C00002BDBD007F10C03786810211A4600F05A
:100C5C00EDFB0346002B0BD001233B61786839690F
:100C6C0000F0A8FE7B68012283F84420012356E0A3
:100C7C00FB6803F00403002B04D07B684FF4006284
:100C8C00DA6002E07B680022DA60FB6803F00203A2
:100C9C00002B03D07B6800229A6037E07B684FF40E
:100CAC0080429A6032E07B68DB68DB089AB27B6832
:100CBC009B685B089BB213439BB2786800211A4671
:100CCC0000F01CFC0346002B1CD001233B61786810
:100CDC00396900F06FFE7B68012283F84420012300
:100CEC001DE000BF0087930300380240003801402C
:100CFC00FF2C3101BF0E1602FF869303FFE0F505B2
:100D0C007FD1F00840F6FF7001F020FD786839695A
:100D1C0000F050FE7B68012283F844200023184623
:100D2C002037BD4680BD00BF80B582B000AF786073
:100D3C007B68022283F84420786800F0EFF87B6827
:100D4C00002283F844207B68002283F8452000238E
:100D5C0018460837BD4680BD80B487B000AFF86038
:100D6C00B9607A603B6000237B61FB6893F8453087
:100D7C00012B01D1022352E0FB68012283F84520AC
:100D8C00FB68022283F84420FB68BA68DA6200230D
:100D9C007B6130E07B695B01BA6813443B613B6962
:100DAC004FF480121A607B6940F2F45202FB03F399
:100DBC007A6813441A463B699A60FB68DB69002B1E
:100DCC0005D13B691B6843F440023B691A603B68E0
:100DDC005A1E7B699A4208D97B6901335B01BA6858
:100DEC0013441A463B69DA6002E0BA683B69DA6080
:100DFC007B6901337B617A693B689A42CAD3FB6891
:100E0C001B68BA6803F5805310331A60FB68012223
:100E1C0083F84420FB68002283F845200023184601
:100E2C001C37BD465DF8047B704700BF80B487B0AB
:100E3C0000AFF860B9607A603B6000237B61FB68AF
:100E4C0093F84530012B01D1022356E0FB680122B7
:100E5C0083F84520FB68022283F84420FB68BA68BB
:100E6C009A6200237B6134E07B695B01BA681344AE
:100E7C003B613B694FF000421A603B6944F2F4520B
:100E8C005A607B6940F2F45202FB03F37A68134414
:100E9C001A463B699A60FB689B69012B05D13B693B
:100EAC005B6823F000423B695A603B685A1E7B69C1
:100EBC009A4208D97B6901335B01BA6813441A461C
:100ECC003B69DA6002E0BA683B69DA607B6901333E
:100EDC007B617A693B689A42C6D3FB681B68BA6827
:100EEC0003F580530C331A60FB68012283F844200D
:100EFC00FB68002283F84520002318461C37BD46AA
:100F0C005DF8047B704700BF80B483B000AF78609D
:100F1C000C37BD465DF8047B704700BF80B483B0CE
:100F2C0000AF78600C37BD465DF8047B704700BF9E
:100F3C0080B487B000AF7860396000237B610023F8
:100F4C00FB6000233B617B6893F84530012B01D19A
:100F5C000223CDE07B68012283F845207B680222C6
:100F6C0083F844203B68002B09D17B68012283F86D
:100F7C0044207B68002283F845200123B8E07B687D
:100F8C00DB6A1B68002B09DA7B68122283F8442089
:100F9C007B68002283F845200123A9E03B6840F2DE
:100FAC00F452934215D93B68544AA2FB03239B0A83
:100FBC007B613A68514BA3FB02139B0A40F2F4513C
:100FCC0001FB03F3D31A002B05D07B6901337B6142
:100FDC0001E001237B617B69012B1CD17B68DB6AFF
:100FEC007A68D26A126842F040521A607B68DB6AF7
:100FFC003A68C2F30C025A607B68DB6A7A68D26A80
:10100C00126842F000421A607B68DB6ADB681A46A1
:10101C007B68DA624BE000233B6144E07B68DB6A6F
:10102C007A68D26A126822F040521A603B69002B2F
:10103C0007D17B68DB6A7A68D26A126842F0805208
:10104C001A607B68DB6A40F2F4525A607B695A1E64
:10105C003B699A4216D17B68DB6A7A68D26A12685D
:10106C0042F000521A607B69254A02FB03F23B688E
:10107C00134403F2F453FB607B68DB6AFA68C2F337
:10108C000C025A607B68DB6A7A68D26A126842F09A
:10109C0000421A607B68DB6ADB681A467B68DA629E
:1010AC003B6901333B613A697B699A42B6D37B68F1
:1010BC001B6803F5805314331B6803F00403002BE7
:1010CC000DD07B681B6803F58053143304221A601F
:1010DC007B681B6803F58053043300221A607B681D
:1010EC00012283F844207B68002283F845200023EA
:1010FC0018461C37BD465DF8047B70470BB002AC3C
:10110C000CFAFFFF80B485B000AF78600023FB6061
:10111C007B6893F84530012B01D1022370E07B688A
:10112C00012283F845207B68022283F844207B68E7
:10113C009B6A1B68002B5ADB7B689B6A1B6803F459
:10114C008073002B30D07B689B6B5A1C7B689A6336
:10115C007B689B6B012B03D17B689A6A7B681A6353
:10116C007B689A6A7B685A637B689B6A1A68274B10
:10117C0013401B0C043BFB607B68FA68DA637B68EA
:10118C001B6B9A687B681A647B689B6ADB681A46DF
:10119C007B689A627B68012283F844207B6800227A
:1011AC0083F8452000232BE07B689B6A1B6803F4C3
:1011BC000073002B10D07B689A6A7B681A637B687B
:1011CC0000225A637B6801229A637B689B6ADB6806
:1011DC001A467B689A620AE07B689B6B5A1C7B6898
:1011EC009A637B689B6ADB681A467B689A627B68A9
:1011FC00012283F844207B68002283F845200123D8
:10120C0018461437BD465DF8047B70470000FF3F5D
:10121C0080B485B000AF78600023FB607B6893F8E6
:10122C004530012B01D1022374E07B68012283F845
:10123C0045207B68022283F844205AE0FB68013386
:10124C00FB607B689B6A1B6803F44073B3F5007FFB
:10125C000DD17B689A6A7B681A637B6801229A635A
:10126C007B689B6ADB681A467B689A6241E07B6804
:10127C009B6A1B6803F44073002B0BD17B689B6B40
:10128C005A1C7B689A637B689B6ADB681A467B688E
:10129C009A622EE07B689A6A7B685A637B689B6BC8
:1012AC005A1C7B689A637B689B6B012B03D17B6810
:1012BC009A6A7B681A637B689B6A1A68184B13409E
:1012CC001B0C1A1F7B68DA637B681B6B9A687B6844
:1012DC001A647B689B6ADB681A467B689A627B6837
:1012EC00012283F844207B68002283F845200023E8
:1012FC0010E07B689B6A1B68002B02DBFB68032BEE
:10130C009CD97B68012283F844207B68002283F8F7
:10131C004520012318461437BD465DF8047B704701
:10132C000000FF3F80B582B000AF78607B681B681F
:10133C0003F5805314331B6803F04003002B12D0C9
:10134C00786800F05FF87B681B6803F580531433F2
:10135C0040221A607B68012283F844207B680022BB
:10136C0083F845201BE07B681B6803F5805314331E
:10137C001B6803F00103002B11D0786800F038F8DB
:10138C007B681B6803F58053143301221A607B6859
:10139C00012283F844207B68002283F845207B6877
:1013AC001B6803F5805314334FF480321A607B684A
:1013BC001B6803F5805314331B6803F40043002BA4
:1013CC0012D0786800F028F87B681B6803F580530E
:1013DC0014334FF400421A607B68012283F84420D6
:1013EC007B68002283F845200837BD4680BD00BFCE
:1013FC0080B483B000AF78600C37BD465DF8047BD9
:10140C00704700BF80B483B000AF78600C37BD4626
:10141C005DF8047B704700BF80B483B000AF786088
:10142C000C37BD465DF8047B704700BF80B586B0B5
:10143C0000AFF8600B467A607B8100237B61002350
:10144C003B61FB6893F84430DBB2822B01D1022361
:10145C0050E0FB68822283F84420FB681B681B6900
:10146C007B617B6903F01C037B61FB681B8ADB02DD
:10147C009BB27A6913437B617B899B0103F4F8630C
:10148C007A6913437B617B6923F002037B617B697F
:10149C0043F001037B61FB681B687A691A6101F0F8
:1014AC0049F9386115E001F045F902463B69D31A58
:1014BC00B3F5803F09D3FB68012283F84420FB6815
:1014CC00002283F84520032314E0FB681B681B698A
:1014DC007B617B6903F00103002BE4D1FB681B6883
:1014EC005B699BB21A467B681A60FB68012283F821
:1014FC004420002318461837BD4680BD80B586B001
:10150C0000AFF8600B467A607B8100237B6100237F
:10151C003B61FB6893F84430DBB2422B01D10223D0
:10152C004EE0FB68422283F84420FB681B681B6971
:10153C007B617B6903F01C037B61FB681B8ADB020C
:10154C009BB27A6913437B617B899B0103F4F8633B
:10155C007A6913437B617B6943F002037B617B698E
:10156C0043F001037B61FB681B687A6892B25A6195
:10157C00FB681B687A691A6101F0DCF8386115E0C8
:10158C0001F0D8F802463B69D31AB3F5803F09D372
:10159C00FB68012283F84420FB68002283F8452075
:1015AC0003230DE0FB681B681B697B617B6903F0FF
:1015BC000103002BE4D1FB68012283F844200023B3
:1015CC0018461837BD4680BD80B582B000AF786034
:1015DC007B6893F84530012B01D102231FE07B6817
:1015EC00012283F845207B68022283F84420786826
:1015FC0000F0DEFB786800F013FC786800F0A8FCC3
:10160C00786800F045FC786800F072FC7B68012279
:10161C0083F844207B68002283F845200023184679
:10162C000837BD4680BD00BF80B582B000AF786082
:10163C007B6893F84530012B01D102231FE07B68B6
:10164C00012283F845207B68022283F844207868C5
:10165C0000F036FC786800F063FC786800F0FCFB66
:10166C00786800F075FC786800F0BEFB7B6801229E
:10167C0083F844207B68002283F845200023184619
:10168C000837BD4680BD00BF80B584B000AF786020
:10169C0039600023FB607B6893F84530012B01D146
:1016AC000223E3E07B68012283F845207B68022259
:1016BC0083F844203B68002B00F0B0807B681B68EB
:1016CC001B68FB60FA686B4B1340FB603B681A6845
:1016DC003B685B681A433B689B681A433B68DB6852
:1016EC001A437B689B681A433B681B691A433B6827
:1016FC005B691A437B68DB681A433B689B691A4336
:10170C003B68DB691A433B681B6A1A433B685B6A9C
:10171C001A433B689B6A1343FA681343FB607B686C
:10172C001B68FA681A607B681B681B68FB600120E9
:10173C0001F00CF87B681B68FA681A607B681B6800
:10174C003A68D16A3A68126B11433A68526B11438A
:10175C003A68926B11433A68D26B11433A68126C37
:10176C0011433A68526C11433A68926C0A435A60BE
:10177C007B681B685B68FB60012000F0E7FF7B68FF
:10178C001B68FA685A607B681B683A68D26C9A606E
:10179C007B681B683A68126DDA607B681B689B6912
:1017AC00FB60FA684FF641731340FB603B685B6D5E
:1017BC001A043B689B6D1A433B68DB6D1A433B680C
:1017CC001B6E1A433B685B6E1A433B689B6E13435C
:1017DC00FA681343FB607B681B68FA689A617B6844
:1017EC001B689B69FB60012000F0B0FF7B681B68E5
:1017FC00FA689A617B681B683A68D16E3A68126F16
:10180C000A43DA617B681B68DB69FB60012000F02E
:10181C009DFF7B681B68FA68DA611EE07B681B68B9
:10182C001B68FB60FB6823F49043FB607B689A6841
:10183C007B68DB681343FA681343FB607B681B68A7
:10184C00FA681A607B681B681B68FB60012000F05B
:10185C007DFF7B681B68FA681A607B68012283F83D
:10186C0044207B68002283F845200023184610375B
:10187C00BD4680BD0F8120FF80B584B000AF78607D
:10188C0039600023FB607B6893F84530012B01D154
:10189C0002237BE07B68012283F845207B680222CF
:1018AC0083F844207B681B6803F5805318331B684E
:1018BC00FB60FA68374B1340FB603B681A683B6867
:1018CC005B681A433B689B681A433B68DB681A43A6
:1018DC003B681B691A433B685B691A433B689B690D
:1018EC001A433B68DB691A433B681B6A1343FA686B
:1018FC001343FB607B681B6803F580531833FA684D
:10190C001A607B681B6803F5805318331B68FB60F7
:10191C00012000F01BFF7B681B6803F58053183314
:10192C00FA681A607B681B683A68516A3A68926A6E
:10193C0011433A68D26A11433A68126B11433A6800
:10194C00526B11433A68926B920011433A68D26B16
:10195C000A4342F4000203F580531A607B681B684B
:10196C0003F580531B68FB60012000F0EFFE7B68E1
:10197C001B6803F58053FA681A607B68012283F8B0
:10198C0044207B68002283F845200023184610373A
:10199C00BD4680BD233FDEF880B483B000AF7860D5
:1019AC007B6893F84430DBB218460C37BD465DF8C3
:1019BC00047B704780B5B0B000AF7860396000230D
:1019CC00C7F8BC303B68002B07D07B684FF4006233
:1019DC00DA607B684FF480429A600023BB6400237A
:1019EC00FB6400233B6500237B650023BB65002360
:1019FC00FB657B68DB69002B03D14FF480633B668E
:101A0C0001E000233B664FF400737B660023BB664A
:101A1C000023FB6600233B6700237B670023BB6727
:101A2C004023FB670023C7F880300023C7F88430BD
:101A3C000023C7F888300023C7F88C300023C7F880
:101A4C0090300023C7F894300023C7F89830002357
:101A5C00C7F89C308023C7F8A0300023C7F8A43007
:101A6C000023C7F8A8300023C7F8AC300023C7F810
:101A7C00B0300023C7F8B4300023C7F8B8307B6807
:101A8C001B681B68C7F8BC30D7F8BC20AB4B1340A5
:101A9C00C7F8BC30BA6CFB6C1A433B6D1A437B6DB8
:101AAC001A437B689B681A43BB6D1A43FB6D1A4340
:101ABC007B68DB681A433B6E1A437B6E1A43BB6E22
:101ACC001A43FB6E1A433B6F1343D7F8BC201343E6
:101ADC00C7F8BC307B681B68D7F8BC201A607B68E1
:101AEC001B681B68C7F8BC30012000F02FFE7B6818
:101AFC001B68D7F8BC201A607B681B68796FBA6FBB
:101B0C001143FA6F1143D7F880201143D7F8842082
:101B1C001143D7F888201143D7F88C201143D7F8FC
:101B2C0090200A435A607B681B685B68C7F8BC301E
:101B3C00012000F00BFE7B681B68D7F8BC205A60B4
:101B4C007B681B68D7F894209A607B681B68D7F871
:101B5C009820DA607B681B689B69C7F8BC30D7F8A3
:101B6C00BC204FF641731340C7F8BC30D7F89C30FB
:101B7C001A04D7F8A0301A43D7F8A4301A43D7F870
:101B8C00A8301A43D7F8AC301A43D7F8B030134307
:101B9C00D7F8BC201343C7F8BC307B681B68D7F858
:101BAC00BC209A617B681B689B69C7F8BC3001201C
:101BBC0000F0CCFD7B681B68D7F8BC209A617B6871
:101BCC001B68D7F8B410D7F8B8200A43DA617B68E1
:101BDC001B68DB69C7F8BC30012000F0B7FD7B68DF
:101BEC001B68D7F8BC20DA610023BB604FF0007390
:101BFC00FB6000233B614FF400137B610023BB614E
:101C0C000023FB6100233B6200237B620423BB6245
:101C1C004FF00073FB624FF480333B634FF480034F
:101C2C007B634FF40053BB638023FB6300233B6453
:101C3C0000237B647B681B6803F5805318331B6897
:101C4C00C7F8BC30D7F8BC203D4B1340C7F8BC30AC
:101C5C00BA68FB681A433B691A437B691A43BB6930
:101C6C001A43FB691A433B6A1A437B6A1A43BB6AE1
:101C7C001343D7F8BC201343C7F8BC307B681B68F0
:101C8C0003F580531833D7F8BC201A607B681B68A7
:101C9C0003F5805318331B68C7F8BC30012000F0E3
:101CAC0055FD7B681B6803F580531833D7F8BC20AF
:101CBC001A607B681B68F96A3A6B11437A6B1143A3
:101CCC00BA6B1143FA6B11433A6C920011437A6C64
:101CDC000A4342F4000203F580531A607B681B68C8
:101CEC0003F580531B68C7F8BC30012000F02EFDB3
:101CFC007B681B6803F58053D7F8BC201A607B689F
:101D0C009B69012B0FD17B6819687B681B6803F5F5
:101D1C0080531C331B6843F4803242F0400201F5BF
:101D2C0080531C331A607B685B69786800211A4603
:101D3C0000F008F8C037BD4680BD00BF0F8120FF02
:101D4C00233FDEF880B487B000AFF860B9607A60EA
:101D5C007B6805331B781B027A68043212781343B4
:101D6C007B61BA68104B13441A467B6913607B681D
:101D7C0003331B781A067B6802331B781B041A4347
:101D8C007B6801331B781B0213437A681278134368
:101D9C007B61BA68054B13441A467B6913601C3788
:101DAC00BD465DF8047B7047408002404480024091
:101DBC0080B584B000AF78600023FB607B681B6843
:101DCC007A681268126842F008021A607B681B6815
:101DDC001B68FB60012000F0B9FC7B681B68FA688B
:101DEC001A601037BD4680BD80B584B000AF7860F6
:101DFC000023FB607B681B687A681268126822F00B
:101E0C0008021A607B681B681B68FB60012000F0ED
:101E1C009DFC7B681B68FA681A601037BD4680BD54
:101E2C0080B584B000AF78600023FB607B681B68D2
:101E3C007A681268126842F004021A607B681B68A8
:101E4C001B68FB60012000F081FC7B681B68FA6852
:101E5C001A601037BD4680BD80B584B000AF786085
:101E6C000023FB607B681B687A681268126822F09A
:101E7C0004021A607B681B681B68FB60012000F081
:101E8C0065FC7B681B68FA681A601037BD4680BD1C
:101E9C0080B483B000AF78607B6819687B681B687E
:101EAC0003F5805318331B6843F4005201F580533B
:101EBC0018331A600C37BD465DF8047B704700BFC1
:101ECC0080B483B000AF78607B6819687B681B684E
:101EDC0003F5805318331B6823F4005201F580532B
:101EEC0018331A600C37BD465DF8047B704700BF91
:101EFC0080B483B000AF78607B6819687B681B681E
:101F0C0003F5805318331B6843F0020201F580532C
:101F1C0018331A600C37BD465DF8047B704700BF60
:101F2C0080B483B000AF78607B6819687B681B68ED
:101F3C0003F5805318331B6823F0020201F580531C
:101F4C0018331A600C37BD465DF8047B704700BF30
:101F5C0080B584B000AF78600023FB607B681968A3
:101F6C007B681B6803F5805318331B6843F480129D
:101F7C0001F5805318331A607B681B6803F5805396
:101F8C0018331B68FB60012000F0E0FB7B681B68CA
:101F9C00FA6803F5805318331A601037BD4680BDBC
:101FAC0080B485B000AF78607B6803F00703FB60FA
:101FBC000C4BDB68BB60BA684FF6FF031340BB6089
:101FCC00FB681A02BB68134343F0BF6343F400334E
:101FDC00BB60044ABB68D3601437BD465DF8047B14
:101FEC00704700BF00ED00E080B400AF044BDB682D
:101FFC0003F4E0631B0A1846BD465DF8047B70478A
:10200C0000ED00E080B483B000AF0346FB710849DB
:10201C0097F907305B09FA7902F01F02012000FAE8
:10202C0002F241F823200C37BD465DF8047B704763
:10203C0000E100E080B483B000AF0346FB710949B6
:10204C0097F907305B09FA7902F01F02012000FAB8
:10205C0002F2203341F823200C37BD465DF8047B97
:10206C00704700BF00E100E080B483B000AF0346CE
:10207C00FB710C4A97F907305B09403352F8233057
:10208C00FA7902F01F02012101FA02F21340002B2F
:10209C0001D0012300E0002318460C37BD465DF843
:1020AC00047B704700E100E080B483B000AF0346CE
:1020BC00FB71094997F907305B09FA7902F01F02A5
:1020CC00012000FA02F2403341F823200C37BD46C0
:1020DC005DF8047B704700BF00E100E080B483B082
:1020EC0000AF0346FB71094997F907305B09FA7990
:1020FC0002F01F02012000FA02F2603341F82320A3
:10210C000C37BD465DF8047B704700BF00E100E072
:10211C0080B483B000AF0346FB710C4A97F90730CB
:10212C005B09803352F82330FA7902F01F02012147
:10213C0001FA02F21340002B01D0012300E000232E
:10214C0018460C37BD465DF8047B704700E100E093
:10215C0080B483B000AF03463960FB7197F9073048
:10216C00002B0BDA0D49FB7903F00F03043B3A68A3
:10217C00D2B21201D2B20B441A7609E0084997F98F
:10218C0007303A68D2B21201D2B20B4483F8002362
:10219C000C37BD465DF8047B704700BF00ED00E0D6
:1021AC0000E100E080B483B000AF0346FB7197F907
:1021BC000730002B0ADA0D4AFB7903F00F03043BBE
:1021CC0013441B7EDBB21B09DBB208E0084A97F90B
:1021DC000730134493F80033DBB21B09DBB218460B
:1021EC000C37BD465DF8047B704700BF00ED00E086
:1021FC0000E100E080B489B000AFF860B9607A60AB
:10220C00FB6803F00703FB61FB69C3F10703042BB5
:10221C0028BF0423BB61FB690433062B02D9FB697D
:10222C00033B00E000237B61BB69012202FA03F34C
:10223C00013B1A46BB681A407B699A407B690121B5
:10224C0001FA03F3013B19467B680B401343184614
:10225C002437BD465DF8047B704700BF80B489B05D
:10226C0000AFF860B9607A603B60BB6803F00703AD
:10227C00FB61FB69C3F10703042B28BF0423BB617B
:10228C00FB690433062B02D9FB69033B00E00023F6
:10229C007B617B69FA6822FA03F3BA69012101FABE
:1022AC0002F2013A1A407B681A607B69012202FA39
:1022BC0003F3013B1A46FB681A403B681A6024374B
:1022CC00BD465DF8047B704780B400AFBFF34F8F01
:1022DC000549054BDB6803F4E062044B1343CB6008
:1022EC00BFF34F8FFEE700BF00ED00E00400FA05DE
:1022FC0080B582B000AF78607B68013BB3F1807F22
:10230C0001D301230FE00A4A7B68013B53604FF075
:10231C00FF300F21FFF71CFF054B00229A60044B86
:10232C0007221A60002318460837BD4680BD00BF3F
:10233C0010E000E080B582B000AF78607868FFF7FD
:10234C002FFE0837BD4680BD80B586B000AF034672
:10235C00B9607A60FB7300237B61FFF745FE7861FF
:10236C007869B9687A68FFF745FF024697F90F302C
:10237C0018461146FFF7ECFE1837BD4680BD00BF6E
:10238C0080B582B000AF0346FB7197F90730184651
:10239C00FFF738FE0837BD4680BD00BF80B582B060
:1023AC0000AF0346FB7197F907301846FFF742FE62
:1023BC000837BD4680BD00BF80B500AFFFF784FF76
:1023CC0080BD00BF80B582B000AF78607868FFF741
:1023DC008FFF034618460837BD4680BD80B500AF59
:1023EC00FFF702FE0346184680BD00BF80B584B0DF
:1023FC0000AFB9607A603B600346FB7397F90F300E
:10240C001846FFF7CFFE03461846B9687A683B6852
:10241C00FFF724FF1037BD4680BD00BF80B582B0EA
:10242C0000AF0346FB7197F907301846FFF73CFEE7
:10243C000837BD4680BD00BF80B582B000AF0346F3
:10244C00FB7197F907301846FFF70EFE0346184646
:10245C000837BD4680BD00BF80B582B000AF0346D3
:10246C00FB7197F907301846FFF738FE0837BD4661
:10247C0080BD00BF80B582B000AF0346FB7197F9F9
:10248C0007301846FFF744FE034618460837BD468A
:10249C0080BD00BF80B483B000AF78607B68042B34
:1024AC0006D1094A084B1B6843F00403136005E08E
:1024BC00054A054B1B6823F0040313600C37BD461B
:1024CC005DF8047B704700BF10E000E080B500AF02
:1024DC0000F002F880BD00BF80B400AFBD465DF8CF
:1024EC00047B704780B400AF124A124B1B6843F058
:1024FC00010313600F4B00229A600E4A0D4B1B68B0
:10250C0023F0847323F4803313600A4B0A4A5A6015
:10251C00084A084B1B6823F480231360054B0022E8
:10252C00DA60064B4FF000629A60BD465DF8047BA2
:10253C00704700BF003802401030002400ED00E06E
:10254C0080B487B000AF00233B6100237B61022382
:10255C00FB600023BB6002237B60324B9B6803F063
:10256C000C033B613B69042B07D0082B09D0002BD3
:10257C003FD12D4B2D4A1A603FE02B4B2C4A1A6051
:10258C003BE0284B5B6803F480039B0DBB60254B41
:10259C005B6803F03F037B60BB68002B0DD0244AC3
:1025AC007B68B2FBF3F21F4B596847F6C0730B40C4
:1025BC009B0903FB02F37B610CE01C4A7B68B2FBBA
:1025CC00F3F2184B596847F6C0730B409B0903FB99
:1025DC0002F37B61134B5B6803F440331B0C013338
:1025EC005B00FB607A69FB68B2FBF3F30E4A136085
:1025FC0003E00D4B0D4A1A6000BF0A4B9B6803F0B9
:10260C00F0031B090B4AD35CDBB23B61064B1A6827
:10261C003B6922FA03F3044A13601C37BD465DF88C
:10262C00047B704700380240080000200024F400AE
:10263C0000127A000C00002080B500AF0B4A0B4B47
:10264C001B6843F400731360084A084B1B6843F47F
:10265C00806313600320FFF76DFE0F2000F040F83D
:10266C0000F032F80023184680BD00BF003C024049
:10267C0080B500AF134B4FF0FF321A62114B0022A2
:10268C001A62104B4FF0FF325A620E4B00225A6204
:10269C000C4B4FF0FF321A610A4B00221A61094BA6
:1026AC004FF0FF325A61074B00225A61054B4FF035
:1026BC00FF329A61034B00229A6100F00BF8002361
:1026CC00184680BD0038024080B400AFBD465DF8AE
:1026DC00047B704780B400AFBD465DF8047B704747
:1026EC0080B582B000AF786001F0C0F90246094BAA
:1026FC00A3FB02239B091846FFF764FE4FF0FF3043
:10270C0079680022FFF720FE002318460837BD46E3
:10271C0080BD00BFD34D621080B400AF044B1B686A
:10272C000133034A1360BD465DF8047B704700BF5C
:10273C00B004002080B400AF034B1B681846BD46A4
:10274C005DF8047B704700BFB004002080B584B0F6
:10275C0000AF78600023FB60FFF7ECFFF86000BF70
:10276C00FFF7E8FF0246FB68D21A7B689A42F7D360
:10277C001037BD4680BD00BF80B400AF044A044B87
:10278C001B6823F002031360BD465DF8047B7047A1
:10279C0010E000E080B400AF044A044B1B6843F027
:1027AC0002031360BD465DF8047B704710E000E047
:1027BC0080B400AF024B1846BD465DF8047B7047F1
:1027CC000000030180B400AF034B1B681B0C1846C0
:1027DC00BD465DF8047B7047002004E080B400AF78
:1027EC00044B1B68C3F30B031846BD465DF8047B12
:1027FC00704700BF002004E080B400AF044A044BD3
:10280C005B6843F001035360BD465DF8047B704781
:10281C00002004E080B400AF044A044B5B6823F052
:10282C0001035360BD465DF8047B7047002004E053
:10283C0080B400AF044A044B5B6843F0020353605E
:10284C00BD465DF8047B7047002004E080B400AF07
:10285C00044A044B5B6823F002035360BD465DF8E9
:10286C00047B7047002004E080B400AF044A044BA2
:10287C005B6843F004035360BD465DF8047B70470E
:10288C00002004E080B400AF044A044B5B6823F0E2
:10289C0004035360BD465DF8047B7047002004E0E0
:1028AC0080B485B000AF0123FB60FB6893FAA3F3FF
:1028BC00BB60BB687B607B68B3FA83F33B603B68AF
:1028CC00DBB29B001A46054B13441A4601231360D6
:1028DC001437BD465DF8047B704700BF00042742E7
:1028EC0080B485B000AF0123FB60FB6893FAA3F3BF
:1028FC00BB60BB687B607B68B3FA83F33B603B686F
:10290C00DBB29B001A46054B13441A460023136096
:10291C001437BD465DF8047B704700BF00042742A6
:10292C0080B485B000AF4FF48073FB60FB6893FA02
:10293C00A3F3BB60BB687B607B68B3FA83F33B603B
:10294C003B68DBB29B0003F1844303F51C131A466E
:10295C00012313601437BD465DF8047B704700BF3C
:10296C0080B485B000AF4FF48073FB60FB6893FAC2
:10297C00A3F3BB60BB687B607B68B3FA83F33B60FB
:10298C003B68DBB29B0003F1844303F51C131A462E
:10299C00002313601437BD465DF8047B704700BFFD
:1029AC0080B489B000AF7860396000237B6100236C
:1029BC003B610023BB610023FB6171E1FB690122D8
:1029CC0002FA03F37B613B681A687B6913403B6135
:1029DC003A697B699A4240F060813B685B68022BE4
:1029EC0003D03B685B68122B22D1FB69DA087B6849
:1029FC00083253F82230BB61FB6903F007039B00DC
:102A0C001A460F239340DB43BA691340BB613B6802
:102A1C001B69FA6902F0070292009340BA691343EA
:102A2C00BB61FB69DA087B680832B96943F822108C
:102A3C007B681B68BB61FB695B001A4603239340F0
:102A4C00DB43BA691340BB613B685B6803F003036B
:102A5C00FA6952009340BA691343BB617B68BA6947
:102A6C001A603B685B68012B0BD03B685B68022BE0
:102A7C0007D03B685B68112B03D03B685B68122B5B
:102A8C002FD17B689B68BB61FB695B001A460323F3
:102A9C009340DB43BA691340BB613B68DB68FA695E
:102AAC0052009340BA691343BB617B68BA699A6060
:102ABC007B685B68BB61FB69012202FA03F3DB43B1
:102ACC00BA691340BB613B685B6803F010031A09D9
:102ADC00FB6902FA03F3BA691343BB617B68BA69F9
:102AEC005A607B68DB68BB61FB695B001A46032399
:102AFC009340DB43BA691340BB613B689B68FA693E
:102B0C0052009340BA691343BB617B68BA69DA60BF
:102B1C003B685B6803F08053002B00F0BE80654A75
:102B2C00644B5B6C43F480435364624B5B6C03F407
:102B3C008043FB60FB68604AFB699B08023352F8D8
:102B4C002330BB61FB6903F003039B001A460F2380
:102B5C009340DB43BA691340BB617B68574A93428D
:102B6C0037D07B68564A934231D07B68554A9342A2
:102B7C002BD07B68544A934225D07B68534A9342AE
:102B8C001FD07B68524A934219D07B68514A9342BA
:102B9C0013D07B68504A93420DD07B684F4A9342C6
:102BAC0007D07B684E4A934201D1092312E00A23D5
:102BBC0010E008230EE007230CE006230AE00523AF
:102BCC0008E0042306E0032304E0022302E00123CF
:102BDC0000E00023FA6902F0030292009340BA6904
:102BEC001343BB613449FB699B080233BA6941F852
:102BFC0023203C4B1B68BB613B69DB43BA69134028
:102C0C00BB613B685B6803F48033002B03D0BA696B
:102C1C003B691343BB61334ABB691360314B5B683F
:102C2C00BB613B69DB43BA691340BB613B685B68C2
:102C3C0003F40033002B03D0BA693B691343BB6127
:102C4C00284ABB695360274B9B68BB613B69DB43DC
:102C5C00BA691340BB613B685B6803F48013002BBB
:102C6C0003D0BA693B691343BB611E4ABB699360CD
:102C7C001C4BDB68BB613B69DB43BA691340BB612E
:102C8C003B685B6803F40013002B03D0BA693B6903
:102C9C001343BB61134ABB69D360FB690133FB610E
:102CAC00FB690F2B7FF68AAE2437BD465DF8047B9B
:102CBC00704700BF0038024000380140000002405D
:102CCC000004024000080240000C024000100240C8
:102CDC000014024000180240001C02400020024078
:102CEC0000240240003C014080B487B000AF786003
:102CFC00396000233B610023FB600023BB60002391
:102D0C007B61DAE07B69012202FA03F33B613A68EA
:102D1C003B691340FB60FA683B699A4240F0CA80F9
:102D2C007B681A687B695B00194603238B40DB4385
:102D3C001A407B681A607B69DA087B69D9087B6862
:102D4C00083153F821107B6903F007039B001846E8
:102D5C000F238340DB4319407B68083243F8221071
:102D6C007B689A687B695B00194603238B40DB43C5
:102D7C001A407B689A607B685A687B69012101FA6A
:102D8C0003F3DB431A407B685A607B68DA687B6923
:102D9C005B00194603238B40DB431A407B68DA60E7
:102DAC004A4A7B699B08023352F82330BB607B692B
:102DBC0003F003039B001A460F239340BA68134099
:102DCC00BB607B68424A934237D07B68414A93424E
:102DDC0031D07B68404A93422BD07B683F4A934268
:102DEC0025D07B683E4A93421FD07B683D4A934274
:102DFC0019D07B683C4A934213D07B683B4A934280
:102E0C000DD07B683A4A934207D07B68394A93428B
:102E1C0001D1092312E00A2310E008230EE0072356
:102E2C000CE006230AE0052308E0042306E0032354
:102E3C0004E0022302E0012300E000237A6902F09F
:102E4C000302920003FA02F2BB689A4232D17B6908
:102E5C0003F003039B001A460F239340BB601B48EF
:102E6C007B699B0819497A699208023251F8221041
:102E7C00BA68D2430A40023340F823201E491E4B45
:102E8C001A68FB68DB4313400B601B491A4B5A68EA
:102E9C00FB68DB4313404B601749174B9A68FB6880
:102EAC00DB4313408B601449134BDA68FB68DB433C
:102EBC001340CB607B6901337B617B690F2B7FF601
:102ECC0021AF1C37BD465DF8047B704700380140CC
:102EDC00000002400004024000080240000C0240C6
:102EEC00001002400014024000180240001C024076
:102EFC000020024000240240003C014080B485B018
:102F0C0000AF78600B467B807B681A697B88134026
:102F1C00002B02D00123FB7301E00023FB73FB7B2E
:102F2C0018461437BD465DF8047B704780B483B0F7
:102F3C0000AF78600B467B8013467B707B78002B50
:102F4C0003D07A887B689A6103E07B881A047B68DB
:102F5C009A610C37BD465DF8047B704780B483B032
:102F6C0000AF78600B467B807B685A697B885A403F
:102F7C007B685A610C37BD465DF8047B704700BF17
:102F8C0080B485B000AF78600B467B804FF4803303
:102F9C00FB607A88FB681343FB60FA687B68DA6134
:102FAC007A887B68DA61FA687B68DA617B68DB694E
:102FBC00FB607B68DB6903F48033002B01D00023BA
:102FCC0000E0012318461437BD465DF8047B7047BA
:102FDC0080B582B000AF0346FB80084B5A69FB8872
:102FEC001340002B06D0054AFB885361FB8818461A
:102FFC0000F006F80837BD4680BD00BF003C01401C
:10300C0080B483B000AF0346FB800C37BD465DF83F
:10301C00047B704780B400AF1A4A1A4B1B6843F00C
:10302C0081031360174B00229A60164A154B1B68DC
:10303C0023F0A16323F480331360124B00225A60F7
:10304C001049104B5A68104B13434B600D4B002228
:10305C00C3F884200B4A0B4BD3F8843043F0005355
:10306C0043F44053C2F88430064A064B1B6823F4E1
:10307C0080231360034B0022DA60BD465DF8047BAD
:10308C00704700BF003802401030000480B598B083
:10309C0000AF78600023FB657B681B6803F00103BD
:1030AC00002B6AD0A64B9B6803F00C03042B0BD0AF
:1030BC00A34B9B6803F00C03082B12D1A04B5B684D
:1030CC0003F48003002B0CD09D4B1B6803F40033DE
:1030DC00002B05D07B685B68002B01D1012324E217
:1030EC004BE0984B00221A70FFF724FBF8650AE0BE
:1030FC00FFF720FB0246FB6DD31A41F28832934254
:10310C0001D9032311E28E4B1B6803F40033002B0F
:10311C00EED18C4A7B685B68DBB213707B685B68B2
:10312C00002B15D0FFF706FBF8650AE0FFF702FB52
:10313C000246FB6DD31A41F28832934201D9032324
:10314C00F3E17F4B1B6803F40033002BEED014E04B
:10315C00FFF7F0FAF8650AE0FFF7ECFA0246FB6DB0
:10316C00D31A41F28832934201D90323DDE1744B27
:10317C001B6803F40033002BEED17B681B6803F053
:10318C000203002B7FD06E4B9B6803F00C03002BCB
:10319C000BD06B4B9B6803F00C03082B2AD1684BAC
:1031AC005B6803F48003002B24D1654B1B6803F090
:1031BC000203002B05D07B68DB68012B01D00123B7
:1031CC00B3E15F485E4B1B6823F0F8027B681B6918
:1031DC00F821B965B96D91FAA1F17965796D396507
:1031EC00396DB1FA81F1F964F96CC9B28B401343B2
:1031FC00036048E07B68DB68002B2ED0524B012229
:10320C001A60FFF797FAF86508E0FFF793FA0246A1
:10321C00FB6DD31A642B01D9032386E1484B1B6841
:10322C0003F00203002BF0D04548454B1B6823F0FC
:10323C00F8027B681B69F821B964B96C91FAA1F1A9
:10324C007964796C3964396CB1FA81F1F963F96B91
:10325C00C9B28B401343036015E03B4B00221A604C
:10326C00FFF768FAF86508E0FFF764FA0246FB6DB1
:10327C00D31A642B01D9032357E1314B1B6803F09C
:10328C000203002BF0D17B681B6803F00803002BB2
:10329C0030D07B685B69002B16D02C4B01221A6056
:1032AC00FFF748FAF86508E0FFF744FA0246FB6DB1
:1032BC00D31A642B01D9032337E1214B5B6F03F045
:1032CC000203002BF0D015E0204B00221A60FFF710
:1032DC0031FAF86508E0FFF72DFA0246FB6DD31AB8
:1032EC00642B01D9032320E1154B5B6F03F0020320
:1032FC00002BF0D17B681B6803F00403002B7BD000
:10330C000F4A0F4B1B6C43F0805313640C4B1B6C1C
:10331C0003F08053BB60BB680D4A0D4B1B6843F434
:10332C0080731360FFF706FAF86513E0FFF702FAF3
:10333C000246FB6DD31A642B0CD90323F5E000BFB6
:10334C00003802400238024000004742800E4742DB
:10335C0000700040774B1B6803F48073002BE5D0A2
:10336C00754B00221A70FFF7E5F9F8650AE0FFF7D4
:10337C00E1F90246FB6DD31A41F28832934201D92E
:10338C000323D2E06D4B1B6F03F00203002BEED135
:10339C00694A7B689B68DBB213707B689B68002B67
:1033AC0015D0FFF7C7F9F8650AE0FFF7C3F9024635
:1033BC00FB6DD31A41F28832934201D90323B4E056
:1033CC005E4B1B6F03F00203002BEED014E0FFF7F3
:1033DC00B1F9F8650AE0FFF7ADF90246FB6DD31AB7
:1033EC0041F28832934201D903239EE0534B1B6F69
:1033FC0003F00203002BEED17B689B69002B00F0DD
:10340C0093804E4B9B6803F00C03082B00F08A80D2
:10341C007B689B69022B6ED1494B00221A60FFF727
:10342C0089F9F86508E0FFF785F90246FB6DD31AB8
:10343C00642B01D9032378E0404B1B6803F0007325
:10344C00002BF0D13D487B68DA697B681B6A1A4314
:10345C007B685B6A47F6C071B963B96B91FAA1F1ED
:10346C007963796B3963396BB1FA81F1F962F96A75
:10347C00C9B28B401A437B689B6A5B08013B4FF4D3
:10348C004031B962B96A91FAA1F17962796A39620B
:10349C00396AB1FA81F1F961F969C9B28B401A4301
:1034AC007B68DB6A4FF07061B961B96991FAA1F17F
:1034BC007961796939613969B1FA81F1F960F96831
:1034CC00C9B28B40134343601D4B01221A60FFF7B6
:1034DC0031F9F86508E0FFF72DF90246FB6DD31AB8
:1034EC00642B01D9032320E0144B1B6803F00073F9
:1034FC00002BF0D018E0124B00221A60FFF71AF9DB
:10350C00F86508E0FFF716F90246FB6DD31A642B39
:10351C0001D9032309E0094B1B6803F00073002B4E
:10352C00F0D101E0012300E0002318466037BD46CE
:10353C0080BD00BF0070004070380240003802406F
:10354C006000474280B584B000AF786039600023DA
:10355C00FB60A24B1B6803F00F023B689A4280F0A1
:10356C00A8809E4B3A68D2B21A709C4B1B6803F031
:10357C000F023B689A4201D0012369E17B681B680A
:10358C0003F00203002B08D09549954B9B6823F060
:10359C00F0027B689B6813438B607B681B6803F0AD
:1035AC000103002B00F031817B685B68012B07D194
:1035BC008B4B1B6803F40033002B1AD1012347E11A
:1035CC007B685B68022B03D07B685B68032B08D19C
:1035DC00834B1B6803F00073002B01D1012337E1EF
:1035EC0007E07F4B1B6803F00203002B01D1012382
:1035FC002EE17B497A4B9B6823F003027B685B6866
:10360C0013438B60FFF796F8F8607B685B68012BBF
:10361C0012D10AE0FFF78EF80246FB68D31A41F28A
:10362C008832934201D9032312E16D4B9B6803F05E
:10363C000C03042BEED1E8E07B685B68022B12D103
:10364C000AE0FFF777F80246FB68D31A41F288329A
:10365C00934201D90323FBE0614B9B6803F00C03FD
:10366C00082BEED1D1E07B685B68032B0ED10AE00E
:10367C00FFF760F80246FB68D31A41F28832934296
:10368C0001D90323E4E0564B9B68F1E70AE0FFF70E
:10369C0051F80246FB68D31A41F28832934201D9A1
:1036AC000323D5E04E4B9B6803F00C03002BEED1AB
:1036BC00ABE07B681B6803F00203002B08D0484981
:1036CC00474B9B6823F0F0027B689B6813438B602D
:1036DC007B681B6803F00103002B00F089807B687A
:1036EC005B68012B07D13E4B1B6803F40033002BA6
:1036FC001AD10123ACE07B685B68022B03D07B689A
:10370C005B68032B08D1364B1B6803F00073002B4E
:10371C0001D101239CE007E0314B1B6803F002034D
:10372C00002B01D1012393E02D492D4B9B6823F0F5
:10373C0003027B685B6813438B60FEF7FBFFF8604A
:10374C007B685B68012B12D10AE0FEF7F3FF02469F
:10375C00FB68D31A41F28832934201D9032377E0F4
:10376C001F4B9B6803F00C03042BEED140E07B68ED
:10377C005B68022B12D10AE0FEF7DCFF0246FB6805
:10378C00D31A41F28832934201D9032360E0144BDF
:10379C009B6803F00C03082BEED129E07B685B6877
:1037AC00032B0ED10AE0FEF7C5FF0246FB68D31AC5
:1037BC0041F28832934201D9032349E0084B9B68BC
:1037CC00F1E70FE0FEF7B6FF0246FB68D31A41F2B1
:1037DC008832934206D903233AE000BF003C0240F2
:1037EC00003802401C4B9B6803F00C03002BE9D102
:1037FC001A4B3A68D2B21A70184B1B6803F00F02BE
:10380C003B689A4201D0012322E07B681B6803F0DD
:10381C000403002B08D010490F4B9B6823F4E05293
:10382C007B68DB6813438B607B681B6803F00803C1
:10383C00002B09D00849084B9B6823F460427B6835
:10384C001B69DB0013438B600F20FEF749FF00233D
:10385C0018461037BD4680BD00380240003C02407F
:10386C0080B58CB000AFF860B9607A60FB68002B53
:10387C0027D1294A284B1B6B43F001031363264BBA
:10388C001B6B03F00103BB61BB694FF48073FB61DD
:10389C0002233B620323BB6200237B620023FB6297
:1038AC0007F11C031D481946FFF77AF81A481A4B02
:1038BC009B6823F0EC62B9687B680B43134383600D
:1038CC0027E0154A144B1B6B43F004031363124B94
:1038DC001B6B03F004037B617B694FF40073FB618A
:1038EC0002233B620323BB6200237B620023FB6247
:1038FC0007F11C030A481946FFF752F80648064B15
:10390C009B6823F078427B68D900BB680B43134358
:10391C0083603037BD4680BD003802400000024055
:10392C000008024080B400AF034B01221A60BD4670
:10393C005DF8047B704700BF4C00474280B400AF79
:10394C00034B00221A60BD465DF8047B704700BF34
:10395C004C00474280B491B000AF00237B6300233E
:10396C00FB6300233B630023BB633D4B9B6803F06D
:10397C000C03042B06D0082B07D0002B66D1394B37
:10398C00BB6366E0384BBB6363E0354B5B6803F0AD
:10399C003F037B63324B5B6803F48003002B1CD02A
:1039AC00314A7B6BB2FBF3F22D4B596847F6C0736F
:1039BC000B4047F6C071F962F96A91FAA1F1B9624C
:1039CC00B96A7962796AB1FA81F13962396AC9B234
:1039DC00CB4003FB02F3FB631BE0224A7B6BB2FB85
:1039EC00F3F21F4B596847F6C0730B4047F6C07192
:1039FC00F961F96991FAA1F1B961B96979617969EA
:103A0C00B1FA81F139613969C9B2CB4003FB02F3D8
:103A1C00FB63134B5B6803F440334FF44032FA60A2
:103A2C00FA6892FAA2F2BA60BA687A607A68B2FA64
:103A3C0082F23A603A68D2B2D34001335B003B6306
:103A4C00FA6B3B6BB2FBF3F3BB6302E0054BBB635E
:103A5C0000BFBB6B18464437BD465DF8047B70470E
:103A6C00003802400024F40000127A0080B584B0C3
:103A7C0000AFFFF76FFF01460F4B9B6803F0F0039D
:103A8C00F022FA60FA6892FAA2F2BA60BA687A6026
:103A9C007A68B2FA82F23A603A68D2B2D340074AF4
:103AAC00D35C21FA03F3064A1360054B1B681846D6
:103ABC001037BD4680BD00BF003802400C420008E4
:103ACC000800002080B584B000AFFFF7CFFF01469F
:103ADC000D4B9B6803F4E0534FF4E052FA60FA6824
:103AEC0092FAA2F2BA60BA687A607A68B2FA82F292
:103AFC003A603A68D2B2D340044AD35C21FA03F359
:103B0C0018461037BD4680BD003802400C420008F4
:103B1C0080B584B000AFFFF7A9FF01460D4B9B6841
:103B2C0003F460434FF46042FA60FA6892FAA2F22E
:103B3C00BA60BA687A607A68B2FA82F23A603A6825
:103B4C00D2B2D340044AD35C21FA03F3184610379F
:103B5C00BD4680BD003802400C42000880B493B0D2
:103B6C0000AF78607B680F221A60624B1B6803F40D
:103B7C008023002B03D07B6805225A600CE05D4B40
:103B8C001B6803F48033002B03D07B6801225A603E
:103B9C0002E07B6800225A60564B1B6803F001035D
:103BAC00002B03D07B680122DA6002E07B680022E4
:103BBC00DA60504B1B6803F0F803F8227A647A6CD5
:103BCC0092FAA2F23A643A6CFA63FA6BB2FA82F2A3
:103BDC00BA63BA6BD2B223FA02F27B681A61454B14
:103BEC001B6F03F00403002B03D07B6805229A6043
:103BFC000CE0404B1B6F03F00103002B03D07B68E0
:103C0C0001229A6002E07B6800229A60394B5B6F5C
:103C1C0003F00103002B03D07B6801225A6102E000
:103C2C007B6800225A61334B1B6803F08073002BB6
:103C3C0003D07B6802229A6102E07B6801229A61C0
:103C4C002C4B5B6803F480027B68DA61294B5B6860
:103C5C0003F03F027B681A62264B5A6847F6C07322
:103C6C00134047F6C0727A637A6B92FAA2F23A6307
:103C7C003A6BFA62FA6AB2FA82F2BA62BA6AD2B2EF
:103C8C0023FA02F27B685A621A4B5B6803F44033E6
:103C9C0003F580335B004FF440327A627A6A92FA11
:103CAC00A2F23A623A6AFA61FA69B2FA82F2BA613B
:103CBC00BA69D2B223FA02F27B689A620D4B5B6846
:103CCC0003F070634FF070627A617A6992FAA2F233
:103CDC003A613A69FA60FA68B2FA82F2BA60BA6882
:103CEC00D2B223FA02F27B68DA624C37BD465DF839
:103CFC00047B70470038024080B483B000AF78601A
:103D0C0039607B680F221A60114B9B6803F0030229
:103D1C007B685A600E4B9B6803F0F0027B689A60DC
:103D2C000B4B9B6803F4E0527B68DA60084B9B6892
:103D3C0003F46043DA087B681A61064B1B6803F0D6
:103D4C000F023B681A600C37BD465DF8047B704768
:103D5C0000380240003C024080B500AF054BDB68E8
:103D6C0003F08003002B04D000F008F8024B8022F3
:103D7C001A7080BD003802400E38024080B400AF8B
:103D8C00BD465DF8047B704780B500AFFCF736FA92
:103D9C00FCF75AFAFCF77EFAFCF7A2FAFCF7C6FA23
:103DAC0010484FF480410122FFF7C0F80E48012162
:103DBC00FFF7A4F80346012B13D10C482021012254
:103DCC00FFF7B4F800F0C8F80346012B04D10848FB
:103DDC00FDF7FAFBFCF708FB044820210022FFF753
:103DEC00A5F8DDE700180240000002400008024080
:103DFC00B404002080B489B000AF324A314B1B6B45
:103E0C0043F0010313632F4B1B6B03F00103FB61A6
:103E1C00FB692C4A2B4B1B6B43F002031363294B9E
:103E2C001B6B03F00203BB61BB69264A254B1B6B62
:103E3C0043F004031363234B1B6B03F004037B61FC
:103E4C007B69204A1F4B5B6C43F4804353641D4BCE
:103E5C005B6C03F480433B613B691A4A194B1B6B47
:103E6C0043F000731363174B1B6B03F00073FB6081
:103E7C00FB68144A134B1B6B43F080631363114BA9
:103E8C001B6B03F08063BB60BB680E4A0D4B1B6B56
:103E9C0043F0006313630B4B1B6B03F000637B60FD
:103EAC007B68084A074B1B6B43F000731363054B8D
:103EBC001B6B03F000733B603B682437BD465DF819
:103ECC00047B70470038024080B586B000AF0B23EE
:103EDC007B610223BB6086237B600023FB60032392
:103EEC003B613B1D03481946FEF75AFD1837BD468A
:103EFC0080BD00BF0000024080B586B000AF0B2330
:103F0C007B610123BB604FF460537B600023FB603B
:103F1C0003233B613B1D03481946FEF741FD18374F
:103F2C00BD4680BD0004024080B586B000AF0B23B7
:103F3C007B610023BB6032237B600023FB60032387
:103F4C003B613B1D03481946FEF72AFD1837BD4659
:103F5C0080BD00BF00080240B0B5ADF5435D82B036
:103F6C0000AF07F10803083B384A106818609288C4
:103F7C009A80012307F5425202F1280213604FF494
:103F8C00804307F5425202F12C0213604FF4006398
:103F9C0007F5425202F130021360002307F542523A
:103FAC0002F13402138007F10803083B07F5425273
:103FBC0002F138021360002307F5425202F13C0271
:103FCC001360012307F5435213604FF4000307F508
:103FDC00435202F1040213601D4B1C1D07F54255A0
:103FEC0005F128050FCD0FC495E80F0084E80F00EC
:103FFC001748FCF715FDFFF7FDFEFFF765FFFFF710
:10400C007BFFFFF791FF07F53E5202F1280207F103
:10401C0008030F4811461A460423FCF79DFE07F5CA
:10402C00405202F1280207F5BF5303F10803103B7D
:10403C00074811461A460423FCF7F8FE01231846DC
:10404C0007F543570837BD46B0BD00BF1C420008FA
:10405C00B404002070B50F4E0F4D761BB61018BF70
:10406C00002405D0013455F8043B9847A642F9D1F9
:10407C000A4E0B4D761B00F0B7F8B61018BF002493
:10408C0006D0013455F8043B9847A642F9D170BDCF
:10409C0070BD00BF2C4200082C42000834420008BE
:1040AC002C420008024B13B1024800F005B87047CF
:1040BC0000000000D14000080146002002460346E3
:1040CC0000F016B838B5084B084DED1AAC1018BFF7
:1040DC00ED1805D0013C55F8043D9847002CF9D15A
:1040EC00BDE8384000F086B8344200083842000879
:1040FC002DE9F047254C2568D5F8484106468846F9
:10410C0092469946CCB360681F2818DC431C7EB1DC
:10411C0004EB80050121C5F888A0D4F8887101FA58
:10412C0000F21743022EC4F88871C5F808911ED00E
:10413C000230636044F820800020BDE8F087144B07
:10414C0003B34FF4C870AFF300800446D0B1D5F878
:10415C004831002780E88800C5F8484138460123DB
:10416C00C4F88871C4F88C71002EE1D0D0E7D4F873
:10417C008C110A43C4F88C21DAE705F5A674C5F84E
:10418C004841C0E74FF0FF30BDE8F08728420008F7
:10419C0000000000DFF834D0002103E00C4B5B582A
:1041AC00435004310B480C4B42189A42F6D30B4A3D
:1041BC0002E0002342F8043B094B9A42F9D3FEF784
:1041CC0091F9FFF747FFFFF7DFFD7047FFFF012075
:1041DC003842000800000020480400204804002059
:1041EC00FC040020FEE70000F8B500BFF8BC08BCDA
:1041FC009E467047F8B500BFF8BC08BC9E46704799
:10420C000000000001020304010203040607080970
:10421C001234131400100000430000002000002092
:08422C00B1400008D1010008B7
:04423400AD010008D0
:1042380014000000140000000024F4000000000036
:10424800000000000102030406070809000000003E
:10425800000000000C03002074030020DC03002091
:104268000000000000000000000000000000000046
:104278000000000000000000000000000000000036
:1042880000000000244200080000000000000000B8
:104298000000000000000000000000000000000016
:1042A8000000000000000000000000000000000006
:1042B80000000000000000000000000000000000F6
:1042C80000000000000000000000000000000000E6
:1042D80000000000000000000000000000000000D6
:1042E80000000000000000000000000000000000C6
:1042F80000000000000000000100000000000000B5
:104308000E33CDAB34126DE6ECDE05000B00000079
:104318000000000000000000000000000000000095
:104328000000000000000000000000000000000085
:104338000000000000000000000000000000000075
:104348000000000000000000000000000000000065
:04000005080041A10D
:00000001FF
